{
  "_format": "hh-sol-artifact-1",
  "contractName": "NFT",
  "sourceName": "contracts/NFT.sol",
  "abi": [
    {
      "inputs": [],
      "stateMutability": "nonpayable",
      "type": "constructor"
    },
    {
      "anonymous": false,
      "inputs": [
        {
          "indexed": true,
          "internalType": "address",
          "name": "owner",
          "type": "address"
        },
        {
          "indexed": true,
          "internalType": "address",
          "name": "approved",
          "type": "address"
        },
        {
          "indexed": true,
          "internalType": "uint256",
          "name": "tokenId",
          "type": "uint256"
        }
      ],
      "name": "Approval",
      "type": "event"
    },
    {
      "anonymous": false,
      "inputs": [
        {
          "indexed": true,
          "internalType": "address",
          "name": "owner",
          "type": "address"
        },
        {
          "indexed": true,
          "internalType": "address",
          "name": "operator",
          "type": "address"
        },
        {
          "indexed": false,
          "internalType": "bool",
          "name": "approved",
          "type": "bool"
        }
      ],
      "name": "ApprovalForAll",
      "type": "event"
    },
    {
      "anonymous": false,
      "inputs": [
        {
          "indexed": true,
          "internalType": "address",
          "name": "from",
          "type": "address"
        },
        {
          "indexed": true,
          "internalType": "address",
          "name": "to",
          "type": "address"
        },
        {
          "indexed": true,
          "internalType": "uint256",
          "name": "tokenId",
          "type": "uint256"
        }
      ],
      "name": "Transfer",
      "type": "event"
    },
    {
      "inputs": [
        {
          "internalType": "address",
          "name": "to",
          "type": "address"
        },
        {
          "internalType": "uint256",
          "name": "tokenId",
          "type": "uint256"
        }
      ],
      "name": "approve",
      "outputs": [],
      "stateMutability": "nonpayable",
      "type": "function"
    },
    {
      "inputs": [
        {
          "internalType": "address",
          "name": "owner",
          "type": "address"
        }
      ],
      "name": "balanceOf",
      "outputs": [
        {
          "internalType": "uint256",
          "name": "",
          "type": "uint256"
        }
      ],
      "stateMutability": "view",
      "type": "function"
    },
    {
      "inputs": [],
      "name": "baseTokenURI",
      "outputs": [
        {
          "internalType": "string",
          "name": "",
          "type": "string"
        }
      ],
      "stateMutability": "view",
      "type": "function"
    },
    {
      "inputs": [
        {
          "internalType": "address",
          "name": "recipient",
          "type": "address"
        },
        {
          "internalType": "string",
          "name": "tokenURI",
          "type": "string"
        }
      ],
      "name": "createNFT",
      "outputs": [
        {
          "internalType": "uint256",
          "name": "",
          "type": "uint256"
        }
      ],
      "stateMutability": "nonpayable",
      "type": "function"
    },
    {
      "inputs": [
        {
          "internalType": "uint256",
          "name": "tokenId",
          "type": "uint256"
        }
      ],
      "name": "getApproved",
      "outputs": [
        {
          "internalType": "address",
          "name": "",
          "type": "address"
        }
      ],
      "stateMutability": "view",
      "type": "function"
    },
    {
      "inputs": [
        {
          "internalType": "address",
          "name": "owner",
          "type": "address"
        },
        {
          "internalType": "address",
          "name": "operator",
          "type": "address"
        }
      ],
      "name": "isApprovedForAll",
      "outputs": [
        {
          "internalType": "bool",
          "name": "",
          "type": "bool"
        }
      ],
      "stateMutability": "view",
      "type": "function"
    },
    {
      "inputs": [
        {
          "internalType": "address",
          "name": "recipient",
          "type": "address"
        }
      ],
      "name": "mintTo",
      "outputs": [
        {
          "internalType": "uint256",
          "name": "",
          "type": "uint256"
        }
      ],
      "stateMutability": "nonpayable",
      "type": "function"
    },
    {
      "inputs": [],
      "name": "name",
      "outputs": [
        {
          "internalType": "string",
          "name": "",
          "type": "string"
        }
      ],
      "stateMutability": "view",
      "type": "function"
    },
    {
      "inputs": [
        {
          "internalType": "uint256",
          "name": "tokenId",
          "type": "uint256"
        }
      ],
      "name": "ownerOf",
      "outputs": [
        {
          "internalType": "address",
          "name": "",
          "type": "address"
        }
      ],
      "stateMutability": "view",
      "type": "function"
    },
    {
      "inputs": [
        {
          "internalType": "address",
          "name": "from",
          "type": "address"
        },
        {
          "internalType": "address",
          "name": "to",
          "type": "address"
        },
        {
          "internalType": "uint256",
          "name": "tokenId",
          "type": "uint256"
        }
      ],
      "name": "safeTransferFrom",
      "outputs": [],
      "stateMutability": "nonpayable",
      "type": "function"
    },
    {
      "inputs": [
        {
          "internalType": "address",
          "name": "from",
          "type": "address"
        },
        {
          "internalType": "address",
          "name": "to",
          "type": "address"
        },
        {
          "internalType": "uint256",
          "name": "tokenId",
          "type": "uint256"
        },
        {
          "internalType": "bytes",
          "name": "_data",
          "type": "bytes"
        }
      ],
      "name": "safeTransferFrom",
      "outputs": [],
      "stateMutability": "nonpayable",
      "type": "function"
    },
    {
      "inputs": [
        {
          "internalType": "address",
          "name": "operator",
          "type": "address"
        },
        {
          "internalType": "bool",
          "name": "approved",
          "type": "bool"
        }
      ],
      "name": "setApprovalForAll",
      "outputs": [],
      "stateMutability": "nonpayable",
      "type": "function"
    },
    {
      "inputs": [
        {
          "internalType": "string",
          "name": "_baseTokenURI",
          "type": "string"
        }
      ],
      "name": "setBaseTokenURI",
      "outputs": [],
      "stateMutability": "nonpayable",
      "type": "function"
    },
    {
      "inputs": [
        {
          "internalType": "bytes4",
          "name": "interfaceId",
          "type": "bytes4"
        }
      ],
      "name": "supportsInterface",
      "outputs": [
        {
          "internalType": "bool",
          "name": "",
          "type": "bool"
        }
      ],
      "stateMutability": "view",
      "type": "function"
    },
    {
      "inputs": [],
      "name": "symbol",
      "outputs": [
        {
          "internalType": "string",
          "name": "",
          "type": "string"
        }
      ],
      "stateMutability": "view",
      "type": "function"
    },
    {
      "inputs": [
        {
          "internalType": "uint256",
          "name": "tokenId",
          "type": "uint256"
        }
      ],
      "name": "tokenURI",
      "outputs": [
        {
          "internalType": "string",
          "name": "",
          "type": "string"
        }
      ],
      "stateMutability": "view",
      "type": "function"
    },
    {
      "inputs": [
        {
          "internalType": "address",
          "name": "from",
          "type": "address"
        },
        {
          "internalType": "address",
          "name": "to",
          "type": "address"
        },
        {
          "internalType": "uint256",
          "name": "tokenId",
          "type": "uint256"
        }
      ],
      "name": "transferFrom",
      "outputs": [],
      "stateMutability": "nonpayable",
      "type": "function"
    }
  ],
  "bytecode": "0x60806040523480156200001157600080fd5b506040518060400160405280600c81526020017f496e747569744745444e465400000000000000000000000000000000000000008152506040518060400160405280600781526020017f494e54554e465400000000000000000000000000000000000000000000000000815250816000908051906020019062000096929190620000e0565b508060019080519060200190620000af929190620000e0565b5050506040518060200160405280600081525060099080519060200190620000d9929190620000e0565b50620001f5565b828054620000ee9062000190565b90600052602060002090601f0160209004810192826200011257600085556200015e565b82601f106200012d57805160ff19168380011785556200015e565b828001600101855582156200015e579182015b828111156200015d57825182559160200191906001019062000140565b5b5090506200016d919062000171565b5090565b5b808211156200018c57600081600090555060010162000172565b5090565b60006002820490506001821680620001a957607f821691505b60208210811415620001c057620001bf620001c6565b5b50919050565b7f4e487b7100000000000000000000000000000000000000000000000000000000600052602260045260246000fd5b612e2f80620002056000396000f3fe608060405234801561001057600080fd5b506004361061010b5760003560e01c806370a08231116100a2578063a561403311610071578063a5614033146102c8578063b88d4fde146102f8578063c87b56dd14610314578063d547cfb714610344578063e985e9c5146103625761010b565b806370a082311461022e578063755edd171461025e57806395d89b411461028e578063a22cb465146102ac5761010b565b806323b872dd116100de57806323b872dd146101aa57806330176e13146101c657806342842e0e146101e25780636352211e146101fe5761010b565b806301ffc9a71461011057806306fdde0314610140578063081812fc1461015e578063095ea7b31461018e575b600080fd5b61012a60048036038101906101259190611e9b565b610392565b60405161013791906122e2565b60405180910390f35b610148610474565b60405161015591906122fd565b60405180910390f35b61017860048036038101906101739190611f2e565b610506565b604051610185919061227b565b60405180910390f35b6101a860048036038101906101a39190611e5f565b61058b565b005b6101c460048036038101906101bf9190611d05565b6106a3565b005b6101e060048036038101906101db9190611eed565b610703565b005b6101fc60048036038101906101f79190611d05565b61071d565b005b61021860048036038101906102139190611f2e565b61073d565b604051610225919061227b565b60405180910390f35b61024860048036038101906102439190611ca0565b6107ef565b604051610255919061251f565b60405180910390f35b61027860048036038101906102739190611ca0565b6108a7565b604051610285919061251f565b60405180910390f35b6102966108d4565b6040516102a391906122fd565b60405180910390f35b6102c660048036038101906102c19190611dcf565b610966565b005b6102e260048036038101906102dd9190611e0b565b61097c565b6040516102ef919061251f565b60405180910390f35b610312600480360381019061030d9190611d54565b6109b4565b005b61032e60048036038101906103299190611f2e565b610a16565b60405161033b91906122fd565b60405180910390f35b61034c610b68565b60405161035991906122fd565b60405180910390f35b61037c60048036038101906103779190611cc9565b610bf6565b60405161038991906122e2565b60405180910390f35b60007f80ac58cd000000000000000000000000000000000000000000000000000000007bffffffffffffffffffffffffffffffffffffffffffffffffffffffff1916827bffffffffffffffffffffffffffffffffffffffffffffffffffffffff1916148061045d57507f5b5e139f000000000000000000000000000000000000000000000000000000007bffffffffffffffffffffffffffffffffffffffffffffffffffffffff1916827bffffffffffffffffffffffffffffffffffffffffffffffffffffffff1916145b8061046d575061046c82610c8a565b5b9050919050565b60606000805461048390612775565b80601f01602080910402602001604051908101604052809291908181526020018280546104af90612775565b80156104fc5780601f106104d1576101008083540402835291602001916104fc565b820191906000526020600020905b8154815290600101906020018083116104df57829003601f168201915b5050505050905090565b600061051182610cf4565b610550576040517f08c379a00000000000000000000000000000000000000000000000000000000081526004016105479061249f565b60405180910390fd5b6004600083815260200190815260200160002060009054906101000a900473ffffffffffffffffffffffffffffffffffffffff169050919050565b60006105968261073d565b90508073ffffffffffffffffffffffffffffffffffffffff168373ffffffffffffffffffffffffffffffffffffffff161415610607576040517f08c379a00000000000000000000000000000000000000000000000000000000081526004016105fe906124df565b60405180910390fd5b8073ffffffffffffffffffffffffffffffffffffffff16610626610d60565b73ffffffffffffffffffffffffffffffffffffffff16148061065557506106548161064f610d60565b610bf6565b5b610694576040517f08c379a000000000000000000000000000000000000000000000000000000000815260040161068b906123df565b60405180910390fd5b61069e8383610d68565b505050565b6106b46106ae610d60565b82610e21565b6106f3576040517f08c379a00000000000000000000000000000000000000000000000000000000081526004016106ea906124ff565b60405180910390fd5b6106fe838383610eff565b505050565b8060099080519060200190610719929190611ac4565b5050565b610738838383604051806020016040528060008152506109b4565b505050565b6000806002600084815260200190815260200160002060009054906101000a900473ffffffffffffffffffffffffffffffffffffffff169050600073ffffffffffffffffffffffffffffffffffffffff168173ffffffffffffffffffffffffffffffffffffffff1614156107e6576040517f08c379a00000000000000000000000000000000000000000000000000000000081526004016107dd9061241f565b60405180910390fd5b80915050919050565b60008073ffffffffffffffffffffffffffffffffffffffff168273ffffffffffffffffffffffffffffffffffffffff161415610860576040517f08c379a0000000000000000000000000000000000000000000000000000000008152600401610857906123ff565b60405180910390fd5b600360008373ffffffffffffffffffffffffffffffffffffffff1673ffffffffffffffffffffffffffffffffffffffff168152602001908152602001600020549050919050565b60006108b36007611166565b60006108bf600761117c565b90506108cb838261118a565b80915050919050565b6060600180546108e390612775565b80601f016020809104026020016040519081016040528092919081815260200182805461090f90612775565b801561095c5780601f106109315761010080835404028352916020019161095c565b820191906000526020600020905b81548152906001019060200180831161093f57829003601f168201915b5050505050905090565b610978610971610d60565b83836111a8565b5050565b60006109886008611166565b6000610994600861117c565b90506109a0848261118a565b6109aa8184611315565b8091505092915050565b6109c56109bf610d60565b83610e21565b610a04576040517f08c379a00000000000000000000000000000000000000000000000000000000081526004016109fb906124ff565b60405180910390fd5b610a1084848484611389565b50505050565b6060610a2182610cf4565b610a60576040517f08c379a0000000000000000000000000000000000000000000000000000000008152600401610a579061247f565b60405180910390fd5b6000600660008481526020019081526020016000208054610a8090612775565b80601f0160208091040260200160405190810160405280929190818152602001828054610aac90612775565b8015610af95780601f10610ace57610100808354040283529160200191610af9565b820191906000526020600020905b815481529060010190602001808311610adc57829003601f168201915b505050505090506000610b0a6113e5565b9050600081511415610b20578192505050610b63565b600082511115610b55578082604051602001610b3d929190612257565b60405160208183030381529060405292505050610b63565b610b5e84611477565b925050505b919050565b60098054610b7590612775565b80601f0160208091040260200160405190810160405280929190818152602001828054610ba190612775565b8015610bee5780601f10610bc357610100808354040283529160200191610bee565b820191906000526020600020905b815481529060010190602001808311610bd157829003601f168201915b505050505081565b6000600560008473ffffffffffffffffffffffffffffffffffffffff1673ffffffffffffffffffffffffffffffffffffffff16815260200190815260200160002060008373ffffffffffffffffffffffffffffffffffffffff1673ffffffffffffffffffffffffffffffffffffffff16815260200190815260200160002060009054906101000a900460ff16905092915050565b60007f01ffc9a7000000000000000000000000000000000000000000000000000000007bffffffffffffffffffffffffffffffffffffffffffffffffffffffff1916827bffffffffffffffffffffffffffffffffffffffffffffffffffffffff1916149050919050565b60008073ffffffffffffffffffffffffffffffffffffffff166002600084815260200190815260200160002060009054906101000a900473ffffffffffffffffffffffffffffffffffffffff1673ffffffffffffffffffffffffffffffffffffffff1614159050919050565b600033905090565b816004600083815260200190815260200160002060006101000a81548173ffffffffffffffffffffffffffffffffffffffff021916908373ffffffffffffffffffffffffffffffffffffffff160217905550808273ffffffffffffffffffffffffffffffffffffffff16610ddb8361073d565b73ffffffffffffffffffffffffffffffffffffffff167f8c5be1e5ebec7d5bd14f71427d1e84f3dd0314c0f7b2291e5b200ac8c7c3b92560405160405180910390a45050565b6000610e2c82610cf4565b610e6b576040517f08c379a0000000000000000000000000000000000000000000000000000000008152600401610e62906123bf565b60405180910390fd5b6000610e768361073d565b90508073ffffffffffffffffffffffffffffffffffffffff168473ffffffffffffffffffffffffffffffffffffffff161480610ee557508373ffffffffffffffffffffffffffffffffffffffff16610ecd84610506565b73ffffffffffffffffffffffffffffffffffffffff16145b80610ef65750610ef58185610bf6565b5b91505092915050565b8273ffffffffffffffffffffffffffffffffffffffff16610f1f8261073d565b73ffffffffffffffffffffffffffffffffffffffff1614610f75576040517f08c379a0000000000000000000000000000000000000000000000000000000008152600401610f6c9061233f565b60405180910390fd5b600073ffffffffffffffffffffffffffffffffffffffff168273ffffffffffffffffffffffffffffffffffffffff161415610fe5576040517f08c379a0000000000000000000000000000000000000000000000000000000008152600401610fdc9061237f565b60405180910390fd5b610ff083838361151e565b610ffb600082610d68565b6001600360008573ffffffffffffffffffffffffffffffffffffffff1673ffffffffffffffffffffffffffffffffffffffff168152602001908152602001600020600082825461104b919061268b565b925050819055506001600360008473ffffffffffffffffffffffffffffffffffffffff1673ffffffffffffffffffffffffffffffffffffffff16815260200190815260200160002060008282546110a29190612604565b92505081905550816002600083815260200190815260200160002060006101000a81548173ffffffffffffffffffffffffffffffffffffffff021916908373ffffffffffffffffffffffffffffffffffffffff160217905550808273ffffffffffffffffffffffffffffffffffffffff168473ffffffffffffffffffffffffffffffffffffffff167fddf252ad1be2c89b69c2b068fc378daa952ba7f163c4a11628f55a4df523b3ef60405160405180910390a4611161838383611523565b505050565b6001816000016000828254019250508190555050565b600081600001549050919050565b6111a4828260405180602001604052806000815250611528565b5050565b8173ffffffffffffffffffffffffffffffffffffffff168373ffffffffffffffffffffffffffffffffffffffff161415611217576040517f08c379a000000000000000000000000000000000000000000000000000000000815260040161120e9061239f565b60405180910390fd5b80600560008573ffffffffffffffffffffffffffffffffffffffff1673ffffffffffffffffffffffffffffffffffffffff16815260200190815260200160002060008473ffffffffffffffffffffffffffffffffffffffff1673ffffffffffffffffffffffffffffffffffffffff16815260200190815260200160002060006101000a81548160ff0219169083151502179055508173ffffffffffffffffffffffffffffffffffffffff168373ffffffffffffffffffffffffffffffffffffffff167f17307eab39ab6107e8899845ad3d59bd9653f200f220920489ca2b5937696c318360405161130891906122e2565b60405180910390a3505050565b61131e82610cf4565b61135d576040517f08c379a00000000000000000000000000000000000000000000000000000000081526004016113549061243f565b60405180910390fd5b80600660008481526020019081526020016000209080519060200190611384929190611ac4565b505050565b611394848484610eff565b6113a084848484611583565b6113df576040517f08c379a00000000000000000000000000000000000000000000000000000000081526004016113d69061231f565b60405180910390fd5b50505050565b6060600980546113f490612775565b80601f016020809104026020016040519081016040528092919081815260200182805461142090612775565b801561146d5780601f106114425761010080835404028352916020019161146d565b820191906000526020600020905b81548152906001019060200180831161145057829003601f168201915b5050505050905090565b606061148282610cf4565b6114c1576040517f08c379a00000000000000000000000000000000000000000000000000000000081526004016114b8906124bf565b60405180910390fd5b60006114cb6113e5565b905060008151116114eb5760405180602001604052806000815250611516565b806114f58461171a565b604051602001611506929190612257565b6040516020818303038152906040525b915050919050565b505050565b505050565b61153283836118c7565b61153f6000848484611583565b61157e576040517f08c379a00000000000000000000000000000000000000000000000000000000081526004016115759061231f565b60405180910390fd5b505050565b60006115a48473ffffffffffffffffffffffffffffffffffffffff16611aa1565b1561170d578373ffffffffffffffffffffffffffffffffffffffff1663150b7a026115cd610d60565b8786866040518563ffffffff1660e01b81526004016115ef9493929190612296565b602060405180830381600087803b15801561160957600080fd5b505af192505050801561163a57506040513d601f19601f820116820180604052508101906116379190611ec4565b60015b6116bd573d806000811461166a576040519150601f19603f3d011682016040523d82523d6000602084013e61166f565b606091505b506000815114156116b5576040517f08c379a00000000000000000000000000000000000000000000000000000000081526004016116ac9061231f565b60405180910390fd5b805181602001fd5b63150b7a0260e01b7bffffffffffffffffffffffffffffffffffffffffffffffffffffffff1916817bffffffffffffffffffffffffffffffffffffffffffffffffffffffff191614915050611712565b600190505b949350505050565b60606000821415611762576040518060400160405280600181526020017f300000000000000000000000000000000000000000000000000000000000000081525090506118c2565b600082905060005b6000821461179457808061177d906127d8565b915050600a8261178d919061265a565b915061176a565b60008167ffffffffffffffff8111156117d6577f4e487b7100000000000000000000000000000000000000000000000000000000600052604160045260246000fd5b6040519080825280601f01601f1916602001820160405280156118085781602001600182028036833780820191505090505b5090505b600085146118bb57600182611821919061268b565b9150600a856118309190612821565b603061183c9190612604565b60f81b818381518110611878577f4e487b7100000000000000000000000000000000000000000000000000000000600052603260045260246000fd5b60200101907effffffffffffffffffffffffffffffffffffffffffffffffffffffffffffff1916908160001a905350600a856118b4919061265a565b945061180c565b8093505050505b919050565b600073ffffffffffffffffffffffffffffffffffffffff168273ffffffffffffffffffffffffffffffffffffffff161415611937576040517f08c379a000000000000000000000000000000000000000000000000000000000815260040161192e9061245f565b60405180910390fd5b61194081610cf4565b15611980576040517f08c379a00000000000000000000000000000000000000000000000000000000081526004016119779061235f565b60405180910390fd5b61198c6000838361151e565b6001600360008473ffffffffffffffffffffffffffffffffffffffff1673ffffffffffffffffffffffffffffffffffffffff16815260200190815260200160002060008282546119dc9190612604565b92505081905550816002600083815260200190815260200160002060006101000a81548173ffffffffffffffffffffffffffffffffffffffff021916908373ffffffffffffffffffffffffffffffffffffffff160217905550808273ffffffffffffffffffffffffffffffffffffffff16600073ffffffffffffffffffffffffffffffffffffffff167fddf252ad1be2c89b69c2b068fc378daa952ba7f163c4a11628f55a4df523b3ef60405160405180910390a4611a9d60008383611523565b5050565b6000808273ffffffffffffffffffffffffffffffffffffffff163b119050919050565b828054611ad090612775565b90600052602060002090601f016020900481019282611af25760008555611b39565b82601f10611b0b57805160ff1916838001178555611b39565b82800160010185558215611b39579182015b82811115611b38578251825591602001919060010190611b1d565b5b509050611b469190611b4a565b5090565b5b80821115611b63576000816000905550600101611b4b565b5090565b6000611b7a611b758461255f565b61253a565b905082815260208101848484011115611b9257600080fd5b611b9d848285612733565b509392505050565b6000611bb8611bb384612590565b61253a565b905082815260208101848484011115611bd057600080fd5b611bdb848285612733565b509392505050565b600081359050611bf281612d9d565b92915050565b600081359050611c0781612db4565b92915050565b600081359050611c1c81612dcb565b92915050565b600081519050611c3181612dcb565b92915050565b600082601f830112611c4857600080fd5b8135611c58848260208601611b67565b91505092915050565b600082601f830112611c7257600080fd5b8135611c82848260208601611ba5565b91505092915050565b600081359050611c9a81612de2565b92915050565b600060208284031215611cb257600080fd5b6000611cc084828501611be3565b91505092915050565b60008060408385031215611cdc57600080fd5b6000611cea85828601611be3565b9250506020611cfb85828601611be3565b9150509250929050565b600080600060608486031215611d1a57600080fd5b6000611d2886828701611be3565b9350506020611d3986828701611be3565b9250506040611d4a86828701611c8b565b9150509250925092565b60008060008060808587031215611d6a57600080fd5b6000611d7887828801611be3565b9450506020611d8987828801611be3565b9350506040611d9a87828801611c8b565b925050606085013567ffffffffffffffff811115611db757600080fd5b611dc387828801611c37565b91505092959194509250565b60008060408385031215611de257600080fd5b6000611df085828601611be3565b9250506020611e0185828601611bf8565b9150509250929050565b60008060408385031215611e1e57600080fd5b6000611e2c85828601611be3565b925050602083013567ffffffffffffffff811115611e4957600080fd5b611e5585828601611c61565b9150509250929050565b60008060408385031215611e7257600080fd5b6000611e8085828601611be3565b9250506020611e9185828601611c8b565b9150509250929050565b600060208284031215611ead57600080fd5b6000611ebb84828501611c0d565b91505092915050565b600060208284031215611ed657600080fd5b6000611ee484828501611c22565b91505092915050565b600060208284031215611eff57600080fd5b600082013567ffffffffffffffff811115611f1957600080fd5b611f2584828501611c61565b91505092915050565b600060208284031215611f4057600080fd5b6000611f4e84828501611c8b565b91505092915050565b611f60816126bf565b82525050565b611f6f816126d1565b82525050565b6000611f80826125c1565b611f8a81856125d7565b9350611f9a818560208601612742565b611fa38161290e565b840191505092915050565b6000611fb9826125cc565b611fc381856125e8565b9350611fd3818560208601612742565b611fdc8161290e565b840191505092915050565b6000611ff2826125cc565b611ffc81856125f9565b935061200c818560208601612742565b80840191505092915050565b60006120256032836125e8565b91506120308261291f565b604082019050919050565b60006120486025836125e8565b91506120538261296e565b604082019050919050565b600061206b601c836125e8565b9150612076826129bd565b602082019050919050565b600061208e6024836125e8565b9150612099826129e6565b604082019050919050565b60006120b16019836125e8565b91506120bc82612a35565b602082019050919050565b60006120d4602c836125e8565b91506120df82612a5e565b604082019050919050565b60006120f76038836125e8565b915061210282612aad565b604082019050919050565b600061211a602a836125e8565b915061212582612afc565b604082019050919050565b600061213d6029836125e8565b915061214882612b4b565b604082019050919050565b6000612160602e836125e8565b915061216b82612b9a565b604082019050919050565b60006121836020836125e8565b915061218e82612be9565b602082019050919050565b60006121a66031836125e8565b91506121b182612c12565b604082019050919050565b60006121c9602c836125e8565b91506121d482612c61565b604082019050919050565b60006121ec602f836125e8565b91506121f782612cb0565b604082019050919050565b600061220f6021836125e8565b915061221a82612cff565b604082019050919050565b60006122326031836125e8565b915061223d82612d4e565b604082019050919050565b61225181612729565b82525050565b60006122638285611fe7565b915061226f8284611fe7565b91508190509392505050565b60006020820190506122906000830184611f57565b92915050565b60006080820190506122ab6000830187611f57565b6122b86020830186611f57565b6122c56040830185612248565b81810360608301526122d78184611f75565b905095945050505050565b60006020820190506122f76000830184611f66565b92915050565b600060208201905081810360008301526123178184611fae565b905092915050565b6000602082019050818103600083015261233881612018565b9050919050565b600060208201905081810360008301526123588161203b565b9050919050565b600060208201905081810360008301526123788161205e565b9050919050565b6000602082019050818103600083015261239881612081565b9050919050565b600060208201905081810360008301526123b8816120a4565b9050919050565b600060208201905081810360008301526123d8816120c7565b9050919050565b600060208201905081810360008301526123f8816120ea565b9050919050565b600060208201905081810360008301526124188161210d565b9050919050565b6000602082019050818103600083015261243881612130565b9050919050565b6000602082019050818103600083015261245881612153565b9050919050565b6000602082019050818103600083015261247881612176565b9050919050565b6000602082019050818103600083015261249881612199565b9050919050565b600060208201905081810360008301526124b8816121bc565b9050919050565b600060208201905081810360008301526124d8816121df565b9050919050565b600060208201905081810360008301526124f881612202565b9050919050565b6000602082019050818103600083015261251881612225565b9050919050565b60006020820190506125346000830184612248565b92915050565b6000612544612555565b905061255082826127a7565b919050565b6000604051905090565b600067ffffffffffffffff82111561257a576125796128df565b5b6125838261290e565b9050602081019050919050565b600067ffffffffffffffff8211156125ab576125aa6128df565b5b6125b48261290e565b9050602081019050919050565b600081519050919050565b600081519050919050565b600082825260208201905092915050565b600082825260208201905092915050565b600081905092915050565b600061260f82612729565b915061261a83612729565b9250827fffffffffffffffffffffffffffffffffffffffffffffffffffffffffffffffff0382111561264f5761264e612852565b5b828201905092915050565b600061266582612729565b915061267083612729565b9250826126805761267f612881565b5b828204905092915050565b600061269682612729565b91506126a183612729565b9250828210156126b4576126b3612852565b5b828203905092915050565b60006126ca82612709565b9050919050565b60008115159050919050565b60007fffffffff0000000000000000000000000000000000000000000000000000000082169050919050565b600073ffffffffffffffffffffffffffffffffffffffff82169050919050565b6000819050919050565b82818337600083830152505050565b60005b83811015612760578082015181840152602081019050612745565b8381111561276f576000848401525b50505050565b6000600282049050600182168061278d57607f821691505b602082108114156127a1576127a06128b0565b5b50919050565b6127b08261290e565b810181811067ffffffffffffffff821117156127cf576127ce6128df565b5b80604052505050565b60006127e382612729565b91507fffffffffffffffffffffffffffffffffffffffffffffffffffffffffffffffff82141561281657612815612852565b5b600182019050919050565b600061282c82612729565b915061283783612729565b92508261284757612846612881565b5b828206905092915050565b7f4e487b7100000000000000000000000000000000000000000000000000000000600052601160045260246000fd5b7f4e487b7100000000000000000000000000000000000000000000000000000000600052601260045260246000fd5b7f4e487b7100000000000000000000000000000000000000000000000000000000600052602260045260246000fd5b7f4e487b7100000000000000000000000000000000000000000000000000000000600052604160045260246000fd5b6000601f19601f8301169050919050565b7f4552433732313a207472616e7366657220746f206e6f6e20455243373231526560008201527f63656976657220696d706c656d656e7465720000000000000000000000000000602082015250565b7f4552433732313a207472616e736665722066726f6d20696e636f72726563742060008201527f6f776e6572000000000000000000000000000000000000000000000000000000602082015250565b7f4552433732313a20746f6b656e20616c7265616479206d696e74656400000000600082015250565b7f4552433732313a207472616e7366657220746f20746865207a65726f2061646460008201527f7265737300000000000000000000000000000000000000000000000000000000602082015250565b7f4552433732313a20617070726f766520746f2063616c6c657200000000000000600082015250565b7f4552433732313a206f70657261746f7220717565727920666f72206e6f6e657860008201527f697374656e7420746f6b656e0000000000000000000000000000000000000000602082015250565b7f4552433732313a20617070726f76652063616c6c6572206973206e6f74206f7760008201527f6e6572206e6f7220617070726f76656420666f7220616c6c0000000000000000602082015250565b7f4552433732313a2062616c616e636520717565727920666f7220746865207a6560008201527f726f206164647265737300000000000000000000000000000000000000000000602082015250565b7f4552433732313a206f776e657220717565727920666f72206e6f6e657869737460008201527f656e7420746f6b656e0000000000000000000000000000000000000000000000602082015250565b7f45524337323155524953746f726167653a2055524920736574206f66206e6f6e60008201527f6578697374656e7420746f6b656e000000000000000000000000000000000000602082015250565b7f4552433732313a206d696e7420746f20746865207a65726f2061646472657373600082015250565b7f45524337323155524953746f726167653a2055524920717565727920666f722060008201527f6e6f6e6578697374656e7420746f6b656e000000000000000000000000000000602082015250565b7f4552433732313a20617070726f76656420717565727920666f72206e6f6e657860008201527f697374656e7420746f6b656e0000000000000000000000000000000000000000602082015250565b7f4552433732314d657461646174613a2055524920717565727920666f72206e6f60008201527f6e6578697374656e7420746f6b656e0000000000000000000000000000000000602082015250565b7f4552433732313a20617070726f76616c20746f2063757272656e74206f776e6560008201527f7200000000000000000000000000000000000000000000000000000000000000602082015250565b7f4552433732313a207472616e736665722063616c6c6572206973206e6f74206f60008201527f776e6572206e6f7220617070726f766564000000000000000000000000000000602082015250565b612da6816126bf565b8114612db157600080fd5b50565b612dbd816126d1565b8114612dc857600080fd5b50565b612dd4816126dd565b8114612ddf57600080fd5b50565b612deb81612729565b8114612df657600080fd5b5056fea2646970667358221220eb41456f23a2113f3d16d0c91c8a5107f4f11dc362d9894b3a47a28ee527b1fe64736f6c63430008010033",
  "linkReferences": {},
  "deployedLinkReferences": {}
}